S010000042434D5F53656E642E7372656359
S11300000C942A000C9470010C9497010C94BE017A
S11300100C94E5010C940C020C9433020C945A02D7
S11300200C9481020C94A8020C94CF020C94F60256
S11300300C941D030C9444030C946B030C949203D2
S11300400C94B9030C94E0030C9407040C942E0450
S11300500C94550411241FBECFE5D8E0DEBFCDBFFC
S113006010E0A0E6B0E0EAEDF3E102C005900D92E5
S1130070A437B107D9F710E0A4E7B0E001C01D929E
S1130080A63AB107E1F70E9449000C94EB090C94DD
S1130090000081E068E04FEF0E94AE0087E660E078
S11300A040E023E000E00E94EF070E9451080E9414
S11300B0FC0480E00E949D04809160008FB9FFCF12
S11300C0813049F0813028F0823039F0833041F4B6
S11300D006C06ABB089567BB089564BB089561BBFD
S11300E00895813049F0813028F0823039F083302E
S11300F041F406C06BBB089568BB089565BB0895C1
S113010062BB0895813059F0813028F0823059F073
S1130110833081F40CC08BB380958BBB089588B376
S1130120809588BB089585B3809585BB089582B377
S1130130809582BB0895813049F0813028F0823067
S113014039F0833049F406C08BB3089588B3089519
S113015085B3089582B3089580E00895442319F087
S11301604F3FD1F521C0813069F0813028F08230D1
S113017079F08330C9F412C08AB3962F90958923FD
S11301808ABB1BC087B3962F9095892387BB19C060
S113019084B3962F9095892384BB17C081B3962F7F
S11301A09095892381BB15C0813059F0813028F0A6
S11301B0823059F0833081F40CC08AB3682B6ABB57
S11301C0089587B3682B67BB089584B3682B64BB19
S11301D0089581B3682B61BB0895442319F04F3F00
S11301E0B1F51DC0813061F0813028F0823069F0B2
S11301F0833069F50FC08BB3609568236BBB08959A
S113020088B36095682368BB089585B360956823B7
S113021065BB089582B36095682362BB08958130FD
S113022059F0813028F0823059F0833081F40CC0C9
S11302308BB3682B6BBB089588B3682B68BB089598
S113024085B3682B65BB089582B3682B62BB0895A0
S1130250813059F0813028F0823059F0833081F4B4
S11302600CC08BB368276BBB089588B3682768BB41
S1130270089585B3682765BB089582B3682762BB78
S11302800895813051F0813028F0823049F0833074
S113029069F409C089B368230AC086B3682307C018
S11302A083B3682304C080B3682301C060E081E0A5
S11302B0662309F480E008958FB780688FBF08959E
S11302C081E064E040E00E94AE008BB780628BBFA7
S11302D084B7806484BF08958FB78F778FBF0895E4
S11302E01F920F920FB60F9211242F933F934F93A7
S11302F05F936F937F938F939F93AF93BF93EF938A
S1130300FF93E0919000F09191000995FF91EF9196
S1130310BF91AF919F918F917F916F915F914F9119
S11303203F912F910F900FBE0F901F9018951F9221
S11303300F920FB60F9211242F933F934F935F9315
S11303406F937F938F939F93AF93BF93EF93FF9399
S1130350E0919600F09197000995FF91EF91BF917C
S1130360AF919F918F917F916F915F914F913F9149
S11303702F910F900FBE0F901F9018951F920F9200
S11303800FB60F9211242F933F934F935F936F9364
S11303907F938F939F93AF93BF93EF93FF93E091DA
S11303A08600F09187000995FF91EF91BF91AF917D
S11303B09F918F917F916F915F914F913F912F9179
S11303C00F900FBE0F901F9018951F920F920FB6AB
S11303D00F9211242F933F934F935F936F937F93C7
S11303E08F939F93AF93BF93EF93FF93E091690033
S11303F0F0916A000995FF91EF91BF91AF919F91A0
S11304008F917F916F915F914F913F912F910F90B9
S11304100FBE0F901F9018951F920F920FB60F9258
S113042011242F933F934F935F936F937F938F93F5
S11304309F93AF93BF93EF93FF93E0916700F09185
S113044068000995FF91EF91BF91AF919F918F91B2
S11304507F916F915F914F913F912F910F900FBEBC
S11304600F901F9018951F920F920FB60F921124A0
S11304702F933F934F935F936F937F938F939F93A8
S1130480AF93BF93EF93FF93E0919800F09199009D
S11304900995FF91EF91BF91AF919F918F917F91BA
S11304A06F915F914F913F912F910F900FBE0F90DD
S11304B01F9018951F920F920FB60F9211242F932D
S11304C03F934F935F936F937F938F939F93AF93D8
S11304D0BF93EF93FF93E0918400F0918500099519
S11304E0FF91EF91BF91AF919F918F917F916F9108
S11304F05F914F913F912F910F900FBE0F901F90DE
S113050018951F920F920FB60F9211242F933F93B9
S11305104F935F936F937F938F939F93AF93BF9307
S1130520EF93FF93E0918200F09183000995FF918E
S1130530EF91BF91AF919F918F917F916F915F9157
S11305404F913F912F910F900FBE0F901F901895D0
S11305501F920F920FB60F9211242F933F934F9334
S11305605F936F937F938F939F93AF93BF93EF9317
S1130570FF93E0919A00F0919B000995FF91EF9110
S1130580BF91AF919F918F917F916F915F914F91A7
S11305903F912F910F900FBE0F901F9018951F92AF
S11305A00F920FB60F9211242F933F934F935F93A3
S11305B06F937F938F939F93AF93BF93EF93FF9327
S11305C0E0916500F09166000995FF91EF91BF916C
S11305D0AF919F918F917F916F915F914F913F91D7
S11305E02F910F900FBE0F901F9018951F920F928E
S11305F00FB60F9211242F933F934F935F936F93F2
S11306007F938F939F93AF93BF93EF93FF93E09167
S11306108800F09189000995FF91EF91BF91AF9106
S11306209F918F917F916F915F914F913F912F9106
S11306300F900FBE0F901F9018951F920F920FB638
S11306400F9211242F933F934F935F936F937F9354
S11306508F939F93AF93BF93EF93FF93E0916300C6
S1130660F09164000995FF91EF91BF91AF919F9133
S11306708F917F916F915F914F913F912F910F9047
S11306800FBE0F901F9018951F920F920FB60F92E6
S113069011242F933F934F935F936F937F938F9383
S11306A09F93AF93BF93EF93FF93E0916100F09119
S11306B062000995FF91EF91BF91AF919F918F9146
S11306C07F916F915F914F913F912F910F900FBE4A
S11306D00F901F9018951F920F920FB60F9211242E
S11306E02F933F934F935F936F937F938F939F9336
S11306F0AF93BF93EF93FF93E0919400F091950033
S11307000995FF91EF91BF91AF919F918F917F9147
S11307106F915F914F913F912F910F900FBE0F906A
S11307201F9018951F920F920FB60F9211242F93BA
S11307303F934F935F936F937F938F939F93AF9365
S1130740BF93EF93FF93E0919200F091930009958A
S1130750FF91EF91BF91AF919F918F917F916F9195
S11307605F914F913F912F910F900FBE0F901F906B
S113077018951F920F920FB60F9211242F933F9347
S11307804F935F936F937F938F939F93AF93BF9395
S1130790EF93FF93E0918C00F0918D000995FF9108
S11307A0EF91BF91AF919F918F917F916F915F91E5
S11307B04F913F912F910F900FBE0F901F9018955E
S11307C01F920F920FB60F9211242F933F934F93C2
S11307D05F936F937F938F939F93AF93BF93EF93A5
S11307E0FF93E0918E00F0918F000995FF91EF91B6
S11307F0BF91AF919F918F917F916F915F914F9135
S11308003F912F910F900FBE0F901F9018951F923C
S11308100F920FB60F9211242F933F934F935F9330
S11308206F937F938F939F93AF93BF93EF93FF93B4
S1130830E0918A00F0918B000995FF91EF91BF91AF
S1130840AF919F918F917F916F915F914F913F9164
S11308502F910F900FBE0F901F9018951F920F921B
S11308600FB60F9211242F933F934F935F936F937F
S11308707F938F939F93AF93BF93EF93FF93E091F5
S11308807E00F0917F000995FF91EF91BF91AF91A8
S11308909F918F917F916F915F914F913F912F9194
S11308A00F900FBE0F901F9018951F920F920FB6C6
S11308B00F9211242F933F934F935F936F937F93E2
S11308C08F939F93AF93BF93EF93FF93E091800037
S11308D0F09181000995FF91EF91BF91AF919F91A4
S11308E08F917F916F915F914F913F912F910F90D5
S11308F00FBE0F901F901895813069F0813028F059
S1130900823079F08330C1F412C081E060E14FEFAE
S11309100E94AE00089581E060E24FEF0E94AE00B5
S1130920089581E060E44FEF0E94AE00089581E0F5
S113093060E84FEF0E94AE000895813069F0813085
S113094028F0823079F08330C1F412C081E060E194
S11309504FEF0E94ED00089581E060E24FEF0E94A6
S1130960ED00089581E060E44FEF0E94ED000895EA
S113097081E060E84FEF0E94ED000895813069F056
S1130980813028F0823079F08330C1F412C081E0E4
S113099060E140E00E94ED00089581E060E240E003
S11309A00E94ED00089581E060E440E00E94ED00C3
S11309B0089581E060E840E00E94ED0008958130F0
S11309C061F0813028F0823069F08330A1F40FC0E7
S11309D081E060E10E942801089581E060E20E94C4
S11309E02801089581E060E40E942801089581E0CF
S11309F060E80E9428010895CF93DF93CBE6D0E00E
S1130A00909172008881892B9C81892B9981892BF3
S1130A109D81892B9E81892B8DB99EB18B81892BD8
S1130A208EB981E060EB4FEF0E94AE0081E060E49C
S1130A3040E00E94AE009DB18A81892B8DB9DF917F
S1130A40CF910895809160008FB908958FB96F99FF
S1130A5002C0779BFECF08958FB108956F9902C0AD
S1130A60779BFECF8FB108958EB18295869586953A
S1130A7083708170089582BF089582B7089583B703
S1130A80887F83BF93B780917A00892B83BF0895B1
S1130A9083B7887F83BF0895EF920F93442319F49B
S1130AA00E94480548C093B7892B842B83BF409389
S1130AB07A0022BF603171F0613118F4662331F09D
S1130AC014C0603259F0603381F40CC083B78F7C5A
S1130AD083BF0BC083B7806183BF07C083B78062C5
S1130AE083BF03C083B7806383BF0CBF81E0E81674
S1130AF069F0E81620F082E0E816E9F410C01092DC
S1130B0079000E946C0189B719BE15C081E08093F9
S1130B1079000E945C0189B7816089BF0CC081E0C3
S1130B20809379008FB780688FBF89B7816089BF50
S1130B3089B7826089BF0F91EF900895AC0160E09E
S1130B4070E0411551056105710589F080E090E080
S1130B50DC0108B600FEFDCF28B7216028BF01964E
S1130B60A11DB11D84179507A607B70790F3089533
S1130B70DC01CB010097A105B10531F080EF0E94A3
S1130B803B050E943D05FDCF88B7816088BF08956D
S1130B90CF92DF92EF92FF92CF93C82F8FEF809383
S1130BA075006091750070E080E090E00E94FA08A2
S1130BB06B017C016C2F70E080E090E00E94FA08E9
S1130BC020E030E048EC52E40E9466089B01AC014E
S1130BD0C701B6010E9488090E94CE08609375007F
S1130BE080917900882319F0813029F51FC00E9473
S1130BF03F05809175000E943B0508B600FEFDCFBD
S1130C0088B7816088BF85B38FEF85BB0E943F059D
S1130C108091750080950E943B0508B600FEFDCFCB
S1130C2088B7816088BF85B315BA05C00E943F05A7
S1130C30809175008CBFCF91FF90EF90DF90CF90A3
S1130C40089582B3809582BB0895AF92EF92FF928C
S1130C500F931F93D9012A2DEEB5FFB590E0862B93
S1130C60972B8E2B9F2B9FBD8EBD409376001BBD73
S1130C700ABDF9BCE8BCBDBDACBD2830D1F02930FB
S1130C8028F4AA2051F02430F9F40BC02032A9F042
S1130C902C33B9F02031C1F408C089B7837C89BFF3
S1130CA013C089B7846089BF0FC089B7806189BFC9
S1130CB00BC089B7886089BF07C089B7806289BFC4
S1130CC003C089B78C6389BF1F910F91FF90EF9088
S1130CD0AF9008959DBD8CBD08958CB59DB50895C4
S1130CE02EB53FB58091760090E0822B932B9FBD6B
S1130CF08EBD08958EB59FB5887F9FBD8EBD089526
S1130D0008950895089584BD089584B5089585B51A
S1130D10887F85BD95B580917700892B85BD089521
S1130D2085B5887F85BD0895CF920F93442319F428
S1130D300E94900646C095B5892B842B85BD4093AF
S1130D40770024BD603171F0613118F4662331F00D
S1130D5014C0603259F0603381F40CC085B58F7CC7
S1130D6085BD0BC085B5806185BD07C085B5806232
S1130D7085BD03C085B5806385BD03BD80E4C81609
S1130D8061F080E8C81691F0CC20D9F41092780074
S1130D900E946C0189B719BE14C081E08093780069
S1130DA00E945C0189B7806489BF0BC081E0809395
S1130DB078000E945C0189B7806489BF89B7806824
S1130DC089BF0F91CF9008950F931F93CF93DF9313
S1130DD000D000D0CDB7DEB78C011A8219821B82F5
S1130DE01C82809177008430F9F0853038F48230A9
S1130DF089F08330A0F4813051F507C08630F1F0DA
S1130E008630B8F0873019F51EC08AE38B838AE0F8
S1130E108C831DC088E08B838CE08C8318C082E0B7
S1130E208B8388E08C8313C081E08B8386E08C8382
S1130E300EC081E08B8383E88C8309C081E08B83BF
S1130E4082EC8C8304C081E08B8380EF8C831A82D4
S1130E5019822B8149815A8130E0029FC001039F8E
S1130E60900D129F900D112448175907E0F48C81BE
S1130E700E94830608B606FEFDCF88B7806488BF4B
S1130E8089819A8101969A8389832B8149815A8128
S1130E9030E0029FC001039F900D129F900D11241A
S1130EA04817590720F30F900F900F900F90DF9180
S1130EB0CF911F910F910895CF92DF92EF92FF92FD
S1130EC0CF93DF9300D0CDB7DEB76B017C011A82DC
S1130ED019821A82198289819A81A0E0B0E08C1566
S1130EE09D05AE05BF05B8F48EEF0E94830608B6D3
S1130EF006FEFDCF88B7806488BF89819A810196F8
S1130F009A83898389819A81A0E0B0E08C159D053C
S1130F10AE05BF0548F30F900F90DF91CF91FF907E
S1130F20EF90DF90CF900895CF92DF92EF92FF92EF
S1130F30CF93C82F8FEF809375006091750070E098
S1130F4080E090E00E94FA086B017C016C2F70E055
S1130F5080E090E00E94FA0820E030E048EC52E49F
S1130F600E9466089B01AC01C701B6010E94880972
S1130F700E94CE086093750080917800882319F050
S1130F80813029F51FC00E948706809175000E9458
S1130F90830608B602FEFDCF88B7846088BF85B398
S1130FA08FEF85BB0E9487068091750080950E9413
S1130FB0830608B602FEFDCF88B7846088BF85B378
S1130FC015BA05C00E9487068091750083BDCF9134
S1130FD0FF90EF90DF90CF900895089508950F93B8
S1130FE0833371F0843318F4893179F40CC0843478
S1130FF021F0873651F489B908C084E489B905C061
S113100083E389B902C089E189B9662331F061308B
S113101011F080E003C088E801C080E82230A1F02C
S1131020233028F4222341F02130B9F409C02330BD
S113103079F0243091F40FC08068897F52980DC0F4
S113104082688B7F529809C089778468529805C05A
S11310508668529802C08668529A002319F00130BB
S113106029F403C080688F7B01C0806C413041F05B
S1131070413018F0423041F406C080688F7C04C0CF
S11310808F74806A01C0806B80BD539A549A0F910B
S113109008955D9BFECF8CB908955F9BFECF8CB104
S11310A008950E945C01579A569A6F9A08958CB1DC
S11310B0809360000895809160008CB908958093B6
S11310C0600008958CB908958CB108950CD0E6C0E1
S11310D0DED040F0D5D030F021F45F3F19F0C7C026
S11310E0511110C1CAC0EBD098F39923C9F3552309
S11310F0B1F3951B550BBB27AA2762177307840707
S113110038F09F5F5F4F220F331F441FAA1FA9F3BC
S113111033D00E2E3AF0E0E830D091505040E695AE
S1131120001CCAF729D0FE2F27D0660F771F881F0F
S1131130BB1F261737074807AB07B0E809F0BB0BFE
S1131140802DBF01FF2793585F4F2AF09E3F510522
S113115068F08DC0D7C05F3FECF3983EDCF3869512
S113116077956795B795F7959F5FC9F7880F911D98
S11311709695879597F90895E1E0660F771F881F84
S1131180BB1F621773078407BA0720F0621B730B37
S1131190840BBA0BEE1F88F7E095089598D088F079
S11311A09F5790F0B92F9927B751A0F0D1F0660F4F
S11311B0771F881F991F1AF0BA95C9F712C0B1306A
S11311C081F09FD0B1E008959CC0672F782F8827C5
S11311D0B85F39F0B93FCCF3869577956795B395A9
S11311E0D9F73EF490958095709561957F4F8F4F18
S11311F09F4F0895E89409C097FB3EF4909580951D
S1131200709561957F4F8F4F9F4F9923A9F0F92FC8
S113121096E9BB279395F695879577956795B79546
S1131220F111F8CFFAF4BB0F11F460FF1BC06F5F2C
S11312307F4F8F4F9F4F16C0882311F096E911C03E
S1131240772321F09EE8872F762F05C0662371F05F
S113125096E8862F70E060E02AF09A95660F771F73
S1131260881FDAF7880F9695879597F9089597F967
S11312709F6780E870E060E008959FEF80EC089538
S113128000240A9416161706180609060895002461
S11312900A9412161306140605060895092E0394DB
S11312A0000C11F4882352F0BB0F40F4BF2B11F44F
S11312B060FF04C06F5F7F4F8F4F9F4F089557FDAE
S11312C09058440F551F59F05F3F71F04795880FB0
S11312D097FB991F61F09F3F79F087950895121647
S11312E013061406551FF2CF4695F1DF08C01616F3
S11312F017061806991FF1CF8695710561050894A4
S11313000895E894BB2766277727CB0197F90895BA
S11313100BD0C4CFB5DF28F0BADF18F0952309F05D
S1131320A6CFABCF1124EECFCADFA0F3959FD1F3A4
S1131330950F50E0551F629FF001729FBB27F00D7F
S1131340B11D639FAA27F00DB11DAA1F649F6627D4
S1131350B00DA11D661F829F2227B00DA11D621F23
S1131360739FB00DA11D621F839FA00D611D221FDD
S1131370749F3327A00D611D231F849F600D211DC1
S1131380822F762F6A2F11249F5750408AF0E1F064
S113139088234AF0EE0FFF1FBB1F661F771F881FAD
S11313A091505040A9F79E3F510570F060CFAACFED
S11313B05F3FECF3983EDCF3869577956795B79598
S11313C0F795E7959F5FC1F7FE2B880F911D9695C2
S10D13D0879597F90895F894FFCF6C
S11313DA54570822052106EE07ED071001400008BC
S10713EA008020015A
S9030000FC
