S010000042434D5F53656E642E7372656359
S11300000C942A000C9448020C946F020C949602EF
S11300100C94BD020C94E4020C940B030C94320374
S11300200C9459030C9480030C94A7030C94CE03F2
S11300300C94F5030C941C040C9443040C946A046F
S11300400C9491040C94B8040C94DF040C940605ED
S11300500C942D0511241FBECFE5D8E0DEBFCDBF23
S113006010E0A0E6B0E0E8E9F5E102C005900D92E9
S1130070AA37B107D9F711E0AAE7B0E001C01D9291
S1130080AE3AB107E1F70E942B010C94CA0A0C9412
S113009000000F93CF93DF93EC010097A9F18881BF
S11300A0823029F08330F1F0813081F50BC08091EA
S11300B07B008F5F80937B000E94D4050E942D09F2
S11300C080E025C080917B008F5F80937B0087E672
S11300D060E040E023E000E00E94CB080E942D098C
S11300E080E015C080917B008F5F80937B000E942D
S11300F0D40587E660E040E023E000E00E94CB08FE
S11301000E942D0980E003C084E301C08AE3998141
S113011090937C00DF91CF910F91089520917B0003
S1130120213019F5FC018081823059F0833018F4B4
S1130130813029F40CC0833081F08430D1F080E028
S1130140089510927B000E94130680E00895109297
S11301507B000E94420980E0089510927B000E9477
S113016013060E94420980E00895223020F088E3BB
S113017008958AE3089586E30895E0916600F0E027
S1130180EA57FF4F80916500808380E00895CF9304
S1130190C42F609387004093880092E090937A0084
S11301A0823059F0833018F48130D1F40EC083309A
S11301B091F08430A9F48AE314C0862F0E941506B6
S11301C08C2F0E94150680E00CC0862F90E00E94C0
S11301D03E0980E006C0862F0E94150680E001C01B
S11301E08BE3CF9108955CB15093650040917A0000
S11301F0842F90E02091660030E021503040821737
S1130200930744F489579F4FFC0150834F5F4093F9
S11302107A00089582E080937A00089580916500C1
S11302208FB940917A00842F90E02091660030E0ED
S1130230215030408217930754F489579F4FFC0193
S11302408081809365004F5F40937A00089582E037
S113025080937A00089580E690E00E94490083E04C
S11302606EE44AEF24E00E94C7000E94BD00FDCF67
S1130270813049F0813028F0823039F0833041F404
S113028006C06ABB089567BB089564BB089561BB4B
S11302900895813049F0813028F0823039F083307C
S11302A041F406C06BBB089568BB089565BB08950F
S11302B062BB0895813059F0813028F0823059F0C2
S11302C0833081F40CC08BB380958BBB089588B3C5
S11302D0809588BB089585B3809585BB089582B3C6
S11302E0809582BB0895813049F0813028F08230B6
S11302F039F0833049F406C08BB3089588B3089568
S113030085B3089582B3089580E00895442319F0D5
S11303104F3FD1F521C0813069F0813028F082301F
S113032079F08330C9F412C08AB3962F909589234B
S11303308ABB1BC087B3962F9095892387BB19C0AE
S113034084B3962F9095892384BB17C081B3962FCD
S11303509095892381BB15C0813059F0813028F0F4
S1130360823059F0833081F40CC08AB3682B6ABBA5
S1130370089587B3682B67BB089584B3682B64BB67
S1130380089581B3682B61BB0895442319F04F3F4E
S1130390B1F51DC0813061F0813028F0823069F000
S11303A0833069F50FC08BB3609568236BBB0895E8
S11303B088B36095682368BB089585B36095682306
S11303C065BB089582B36095682362BB089581304C
S11303D059F0813028F0823059F0833081F40CC018
S11303E08BB3682B6BBB089588B3682B68BB0895E7
S11303F085B3682B65BB089582B3682B62BB0895EF
S1130400813059F0813028F0823059F0833081F402
S11304100CC08BB368276BBB089588B3682768BB8F
S1130420089585B3682765BB089582B3682762BBC6
S11304300895813051F0813028F0823049F08330C2
S113044069F409C089B368230AC086B3682307C066
S113045083B3682304C080B3682301C060E081E0F3
S1130460662309F480E008958FB780688FBF0895EC
S113047081E064E040E00E9486018BB780628BBF1C
S113048084B7806484BF08958FB78F778FBF089532
S11304901F920F920FB60F9211242F933F934F93F5
S11304A05F936F937F938F939F93AF93BF93EF93D8
S11304B0FF93E0919801F09199010995FF91EF91D3
S11304C0BF91AF919F918F917F916F915F914F9168
S11304D03F912F910F900FBE0F901F9018951F9270
S11304E00F920FB60F9211242F933F934F935F9364
S11304F06F937F938F939F93AF93BF93EF93FF93E8
S1130500E0919E01F0919F010995FF91EF91BF91B8
S1130510AF919F918F917F916F915F914F913F9197
S11305202F910F900FBE0F901F9018951F920F924E
S11305300FB60F9211242F933F934F935F936F93B2
S11305407F938F939F93AF93BF93EF93FF93E09128
S11305508E01F0918F010995FF91EF91BF91AF91B9
S11305609F918F917F916F915F914F913F912F91C7
S11305700F900FBE0F901F9018951F920F920FB6F9
S11305800F9211242F933F934F935F936F937F9315
S11305908F939F93AF93BF93EF93FF93E0916F007B
S11305A0F09170000995FF91EF91BF91AF919F91E8
S11305B08F917F916F915F914F913F912F910F9008
S11305C00FBE0F901F9018951F920F920FB60F92A7
S11305D011242F933F934F935F936F937F938F9344
S11305E09F93AF93BF93EF93FF93E0916D00F091CE
S11305F06E000995FF91EF91BF91AF919F918F91FB
S11306007F916F915F914F913F912F910F900FBE0A
S11306100F901F9018951F920F920FB60F921124EE
S11306202F933F934F935F936F937F938F939F93F6
S1130630AF93BF93EF93FF93E091A001F091A101D9
S11306400995FF91EF91BF91AF919F918F917F9108
S11306506F915F914F913F912F910F900FBE0F902B
S11306601F9018951F920F920FB60F9211242F937B
S11306703F934F935F936F937F938F939F93AF9326
S1130680BF93EF93FF93E0918C01F0918D01099555
S1130690FF91EF91BF91AF919F918F917F916F9156
S11306A05F914F913F912F910F900FBE0F901F902C
S11306B018951F920F920FB60F9211242F933F9308
S11306C04F935F936F937F938F939F93AF93BF9356
S11306D0EF93FF93E0918A01F0918B010995FF91CB
S11306E0EF91BF91AF919F918F917F916F915F91A6
S11306F04F913F912F910F900FBE0F901F9018951F
S11307001F920F920FB60F9211242F933F934F9382
S11307105F936F937F938F939F93AF93BF93EF9365
S1130720FF93E091A201F091A3010995FF91EF914C
S1130730BF91AF919F918F917F916F915F914F91F5
S11307403F912F910F900FBE0F901F9018951F92FD
S11307500F920FB60F9211242F933F934F935F93F1
S11307606F937F938F939F93AF93BF93EF93FF9375
S1130770E0916B00F0916C000995FF91EF91BF91AE
S1130780AF919F918F917F916F915F914F913F9125
S11307902F910F900FBE0F901F9018951F920F92DC
S11307A00FB60F9211242F933F934F935F936F9340
S11307B07F938F939F93AF93BF93EF93FF93E091B6
S11307C09001F09191010995FF91EF91BF91AF9143
S11307D09F918F917F916F915F914F913F912F9155
S11307E00F900FBE0F901F9018951F920F920FB687
S11307F00F9211242F933F934F935F936F937F93A3
S11308008F939F93AF93BF93EF93FF93E09169000E
S1130810F0916A000995FF91EF91BF91AF919F917B
S11308208F917F916F915F914F913F912F910F9095
S11308300FBE0F901F9018951F920F920FB60F9234
S113084011242F933F934F935F936F937F938F93D1
S11308509F93AF93BF93EF93FF93E0916700F09161
S113086068000995FF91EF91BF91AF919F918F918E
S11308707F916F915F914F913F912F910F900FBE98
S11308800F901F9018951F920F920FB60F9211247C
S11308902F933F934F935F936F937F938F939F9384
S11308A0AF93BF93EF93FF93E0919C01F0919D016F
S11308B00995FF91EF91BF91AF919F918F917F9196
S11308C06F915F914F913F912F910F900FBE0F90B9
S11308D01F9018951F920F920FB60F9211242F9309
S11308E03F934F935F936F937F938F939F93AF93B4
S11308F0BF93EF93FF93E0919A01F0919B010995C7
S1130900FF91EF91BF91AF919F918F917F916F91E3
S11309105F914F913F912F910F900FBE0F901F90B9
S113092018951F920F920FB60F9211242F933F9395
S11309304F935F936F937F938F939F93AF93BF93E3
S1130940EF93FF93E0919401F09195010995FF9144
S1130950EF91BF91AF919F918F917F916F915F9133
S11309604F913F912F910F900FBE0F901F901895AC
S11309701F920F920FB60F9211242F933F934F9310
S11309805F936F937F938F939F93AF93BF93EF93F3
S1130990FF93E0919601F09197010995FF91EF91F2
S11309A0BF91AF919F918F917F916F915F914F9183
S11309B03F912F910F900FBE0F901F9018951F928B
S11309C00F920FB60F9211242F933F934F935F937F
S11309D06F937F938F939F93AF93BF93EF93FF9303
S11309E0E0919201F09193010995FF91EF91BF91EC
S11309F0AF919F918F917F916F915F914F913F91B3
S1130A002F910F900FBE0F901F9018951F920F9269
S1130A100FB60F9211242F933F934F935F936F93CD
S1130A207F938F939F93AF93BF93EF93FF93E09143
S1130A308601F09187010995FF91EF91BF91AF91E4
S1130A409F918F917F916F915F914F913F912F91E2
S1130A500F900FBE0F901F9018951F920F920FB614
S1130A600F9211242F933F934F935F936F937F9330
S1130A708F939F93AF93BF93EF93FF93E09188017C
S1130A80F09189010995FF91EF91BF91AF919F91E9
S1130A908F917F916F915F914F913F912F910F9023
S1130AA00FBE0F901F901895813069F0813028F0A7
S1130AB0823079F08330C1F412C081E060E14FEFFD
S1130AC00E948601089581E060E24FEF0E94860152
S1130AD0089581E060E44FEF0E948601089581E06B
S1130AE060E84FEF0E9486010895813069F08130FB
S1130AF028F0823079F08330C1F412C081E060E1E3
S1130B004FEF0E94C501089581E060E24FEF0E941B
S1130B10C501089581E060E44FEF0E94C501089586
S1130B2081E060E84FEF0E94C5010895813069F0CB
S1130B30813028F0823079F08330C1F412C081E032
S1130B4060E140E00E94C501089581E060E240E078
S1130B500E94C501089581E060E440E00E94C5015F
S1130B60089581E060E840E00E94C5010895813065
S1130B7061F0813028F0823069F08330A1F40FC035
S1130B8081E060E10E940002089581E060E20E9439
S1130B900002089581E060E40E940002089581E06B
S1130BA060E80E9400020895CF93DF93C1E7D0E08C
S1130BB0909178008881892B9C81892B9981892B3C
S1130BC09D81892B9E81892B8DB99EB18B81892B27
S1130BD08EB981E060EB4FEF0E94860181E060E412
S1130BE040E00E9486019DB18A81892B8DB9DF91F5
S1130BF0CF910895809165008FB908958FB96F9949
S1130C0002C0779BFECF08958FB108956F9902C0FB
S1130C10779BFECF8FB108958EB182958695869588
S1130C208370817008951DB808958FB9089582BFA7
S1130C30089582B7089583B7887F83BF93B780915F
S1130C408300892B83BF089583B7887F83BF08956A
S1130C50EF920F93442319F40E94240648C093B7DB
S1130C60892B842B83BF4093830022BF603171F0B2
S1130C70613118F4662331F014C0603259F06033E6
S1130C8081F40CC083B78F7C83BF0BC083B78061B2
S1130C9083BF07C083B7806283BF03C083B7806309
S1130CA083BF0CBF81E0E81669F0E81620F082E00B
S1130CB0E816E9F410C0109282000E94440289B739
S1130CC019BE15C081E0809382000E94340289B766
S1130CD0816089BF0CC081E0809382008FB78068F7
S1130CE08FBF89B7816089BF89B7826089BF0F913F
S1130CF0EF900895AC0160E070E041155105610585
S1130D00710589F080E090E0DC0108B600FEFDCFBB
S1130D1028B7216028BF0196A11DB11D841795072E
S1130D20A607B70790F30895DC01CB010097A1054E
S1130D30B10531F080EF0E9417060E941906FDCF1D
S1130D4088B7816088BF0895CF92DF92EF92FF92B7
S1130D50CF93C82F8FEF80937E0060917E0070E068
S1130D6080E090E00E94D9096B017C016C2F70E057
S1130D7080E090E00E94D90920E030E048EC52E4A1
S1130D800E9445099B01AC01C701B6010E94670A94
S1130D900E94AD0960937E0080918200882319F03F
S1130DA0813029F51FC00E941B0680917E000E949D
S1130DB0170608B600FEFDCF88B7816088BF85B3EB
S1130DC08FEF85BB0E941B0680917E0080950E9458
S1130DD0170608B600FEFDCF88B7816088BF85B3CB
S1130DE015BA05C00E941B0680917E008CBFCF916E
S1130DF0FF90EF90DF90CF90089582B3809582BBEF
S1130E000895AF92EF92FF920F931F93D9012A2D69
S1130E10EEB5FFB590E0862B972B8E2B9F2B9FBDB5
S1130E208EBD40937F001BBD0ABDF9BCE8BCBDBDAF
S1130E30ACBD2830D1F0293028F4AA2051F0243058
S1130E40F9F40BC02032A9F02C33B9F02031C1F4ED
S1130E5008C089B7837C89BF13C089B7846089BF00
S1130E600FC089B7806189BF0BC089B7886089BF0B
S1130E7007C089B7806289BF03C089B78C6389BF03
S1130E801F910F91FF90EF90AF9008959DBD8CBD81
S1130E9008958CB59DB508952EB53FB580917F001A
S1130EA090E0822B932B9FBD8EBD08958EB59FB588
S1130EB0887F9FBD8EBD089508950895089584BDCB
S1130EC0089584B5089585B5887F85BD95B58091CD
S1130ED08000892B85BD089585B5887F85BD0895DB
S1130EE0CF920F93442319F40E946C0746C095B522
S1130EF0892B842B85BD4093800024BD603171F023
S1130F00613118F4662331F014C0603259F0603353
S1130F1081F40CC085B58F7C85BD0BC085B580611F
S1130F2085BD07C085B5806285BD03C085B5806376
S1130F3085BD03BD80E4C81661F080E8C81691F051
S1130F40CC20D9F4109281000E94440289B719BEC2
S1130F5014C081E0809381000E94340289B78064C8
S1130F6089BF0BC081E0809381000E94340289B75D
S1130F70806489BF89B7806889BF0F91CF90089535
S1130F800F931F93CF93DF9300D000D0CDB7DEB77C
S1130F908C011A8219821B821C8280918000843009
S1130FA0F9F0853038F4823089F08330A0F4813050
S1130FB051F507C08630F1F08630B8F0873019F566
S1130FC01EC08AE38B838AE08C831DC088E08B83F8
S1130FD08CE08C8318C082E08B8388E08C8313C000
S1130FE081E08B8386E08C830EC081E08B8383E871
S1130FF08C8309C081E08B8382EC8C8304C081E004
S11310008B8380EF8C831A8219822B8149815A81C8
S113101030E0029FC001039F900D129F900D112498
S113102048175907E0F48C810E945F0708B606FE52
S1131030FDCF88B7806488BF89819A8101969A839D
S113104089832B8149815A8130E0029FC001039F2B
S1131050900D129F900D11244817590720F30F90FB
S11310600F900F900F90DF91CF911F910F910895E2
S1131070CF92DF92EF92FF92CF93DF9300D0CDB760
S1131080DEB76B017C011A8219821A821982898166
S11310909A81A0E0B0E08C159D05AE05BF05B8F4BB
S11310A08EEF0E945F0708B606FEFDCF88B7806406
S11310B088BF89819A8101969A83898389819A81DB
S11310C0A0E0B0E08C159D05AE05BF0548F30F9078
S11310D00F90DF91CF91FF90EF90DF90CF90089524
S11310E0CF92DF92EF92FF92CF93C82F8FEF80932E
S11310F07E0060917E0070E080E090E00E94D9095B
S11311006B017C016C2F70E080E090E00E94D909B3
S113111020E030E048EC52E40E9445099B01AC0118
S1131120C701B6010E94670A0E94AD0960937E0060
S113113080918100882319F0813029F51FC00E9415
S1131140630780917E000E945F0708B602FEFDCF10
S113115088B7846088BF85B38FEF85BB0E9463071F
S113116080917E0080950E945F0708B602FEFDCF45
S113117088B7846088BF85B315BA05C00E94630729
S113118080917E0083BDCF91FF90EF90DF90CF9050
S11311900895089508950F93833371F0843318F4F8
S11311A0893179F40CC0843421F0873651F489B93B
S11311B008C084E489B905C083E389B902C089E120
S11311C089B9662331F0613011F080E003C088E80A
S11311D001C080E82230A1F0233028F4222341F01A
S11311E02130B9F409C0233079F0243091F40FC0D0
S11311F08068897F52980DC082688B7F529809C09D
S113120089778468529805C08668529802C08668B7
S1131210529A002319F0013029F403C080688F7BAF
S113122001C0806C413041F0413018F0423041F44B
S113123006C080688F7C04C08F74806A01C0806B94
S113124080BD539A549A0F9108955D9BFECF8CB93B
S113125008955F9BFECF8CB108950E943402579A83
S1131260569A6F9A08958CB1809365000895809181
S113127065008CB908958093650008958CB908952C
S11312808CB108955398549808950CD0E6C0DED0DC
S113129040F0D5D030F021F45F3F19F0C7C05111B0
S11312A010C1CAC0EBD098F39923C9F35523B1F305
S11312B0951B550BBB27AA2762177307840738F0C1
S11312C09F5F5F4F220F331F441FAA1FA9F333D020
S11312D00E2E3AF0E0E830D091505040E695001CD4
S11312E0CAF729D0FE2F27D0660F771F881FBB1F90
S11312F0261737074807AB07B0E809F0BB0B802D6A
S1131300BF01FF2793585F4F2AF09E3F510568F0B5
S11313108DC0D7C05F3FECF3983EDCF3869577959C
S11313206795B795F7959F5FC9F7880F911D9695B7
S1131330879597F90895E1E0660F771F881FBB1F13
S1131340621773078407BA0720F0621B730B840BC0
S1131350BA0BEE1F88F7E095089598D088F09F5750
S113136090F0B92F9927B751A0F0D1F0660F771FED
S1131370881F991F1AF0BA95C9F712C0B13081F0CD
S11313809FD0B1E008959CC0672F782F8827B85F5D
S113139039F0B93FCCF3869577956795B395D9F72E
S11313A03EF490958095709561957F4F8F4F9F4F38
S11313B00895E89409C097FB3EF490958095709544
S11313C061957F4F8F4F9F4F9923A9F0F92F96E98D
S11313D0BB279395F695879577956795B795F11102
S11313E0F8CFFAF4BB0F11F460FF1BC06F5F7F4F9F
S11313F08F4F9F4F16C0882311F096E911C07723B1
S113140021F09EE8872F762F05C0662371F096E8B9
S1131410862F70E060E02AF09A95660F771F881F88
S1131420DAF7880F9695879597F9089597F99F6746
S113143080E870E060E008959FEF80EC0895002458
S11314400A941616170618060906089500240A9425
S113145012161306140605060895092E0394000CAB
S113146011F4882352F0BB0F40F4BF2B11F460FF3A
S113147004C06F5F7F4F8F4F9F4F089557FD905863
S1131480440F551F59F05F3F71F04795880F97FB44
S1131490991F61F09F3F79F08795089512161306FE
S11314A01406551FF2CF4695F1DF08C0161617062D
S11314B01806991FF1CF8695710561050894089562
S11314C0E894BB2766277727CB0197F908950BD0BB
S11314D0C4CFB5DF28F0BADF18F0952309F0A6CF02
S11314E0ABCF1124EECFCADFA0F3959FD1F3950FB4
S11314F050E0551F629FF001729FBB27F00DB11D94
S1131500639FAA27F00DB11DAA1F649F6627B00D23
S1131510A11D661F829F2227B00DA11D621F739F0C
S1131520B00DA11D621F839FA00D611D221F749F1A
S11315303327A00D611D231F849F600D211D822F61
S1131540762F6A2F11249F5750408AF0E1F08823A8
S11315504AF0EE0FFF1FBB1F661F771F881F9150B5
S11315605040A9F79E3F510570F060CFAACF5F3F6E
S1131570ECF3983EDCF3869577956795B795F795E8
S1131580E7959F5FC1F7FE2B880F911D9695879570
S10B159097F90895F894FFCFC8
S11315980341E803045AFFF300FA05FD06CA08C923
S10D15A80810014000080080200133
S9030000FC
